{"abi":[{"type":"function","name":"addExpense","inputs":[{"name":"category","type":"string","internalType":"string"},{"name":"description","type":"string","internalType":"string"},{"name":"amount","type":"uint256","internalType":"uint256"}],"outputs":[],"stateMutability":"nonpayable"},{"type":"function","name":"addIncome","inputs":[{"name":"category","type":"string","internalType":"string"},{"name":"description","type":"string","internalType":"string"},{"name":"amount","type":"uint256","internalType":"uint256"}],"outputs":[],"stateMutability":"nonpayable"},{"type":"function","name":"getBalance","inputs":[{"name":"user","type":"address","internalType":"address"}],"outputs":[{"name":"income","type":"uint256","internalType":"uint256"},{"name":"expense","type":"uint256","internalType":"uint256"},{"name":"netBalance","type":"int256","internalType":"int256"}],"stateMutability":"view"},{"type":"function","name":"getTransaction","inputs":[{"name":"user","type":"address","internalType":"address"},{"name":"index","type":"uint256","internalType":"uint256"}],"outputs":[{"name":"txType","type":"uint8","internalType":"uint8"},{"name":"category","type":"string","internalType":"string"},{"name":"description","type":"string","internalType":"string"},{"name":"amount","type":"uint256","internalType":"uint256"},{"name":"timestamp","type":"uint256","internalType":"uint256"}],"stateMutability":"view"},{"type":"function","name":"getTransactionCount","inputs":[{"name":"user","type":"address","internalType":"address"}],"outputs":[{"name":"","type":"uint256","internalType":"uint256"}],"stateMutability":"view"},{"type":"function","name":"getTransactions","inputs":[{"name":"user","type":"address","internalType":"address"}],"outputs":[{"name":"","type":"tuple[]","internalType":"struct CashFlowTracker.Transaction[]","components":[{"name":"txType","type":"uint8","internalType":"uint8"},{"name":"category","type":"string","internalType":"string"},{"name":"description","type":"string","internalType":"string"},{"name":"amount","type":"uint256","internalType":"uint256"},{"name":"timestamp","type":"uint256","internalType":"uint256"}]}],"stateMutability":"view"},{"type":"event","name":"TransactionAdded","inputs":[{"name":"user","type":"address","indexed":true,"internalType":"address"},{"name":"txType","type":"uint8","indexed":true,"internalType":"uint8"},{"name":"category","type":"string","indexed":false,"internalType":"string"},{"name":"description","type":"string","indexed":false,"internalType":"string"},{"name":"amount","type":"uint256","indexed":false,"internalType":"uint256"},{"name":"timestamp","type":"uint256","indexed":false,"internalType":"uint256"}],"anonymous":false},{"type":"error","name":"EmptyCategory","inputs":[]},{"type":"error","name":"IndexOutOfBounds","inputs":[]},{"type":"error","name":"InvalidAmount","inputs":[]}],"bytecode":{"object":"0x608060405234801561000f575f80fd5b50610bec8061001d5f395ff3fe608060405234801561000f575f80fd5b5060043610610060575f3560e01c80630f8cda201461006457806323ca0cd21461008d57806384c13bad146100c35780639c260148146100d8578063a43293b4146100eb578063f8b2cb4f1461010f575b5f80fd5b610077610072366004610759565b61013d565b60405161008491906107bc565b60405180910390f35b6100b561009b366004610759565b6001600160a01b03165f9081526020819052604090205490565b604051908152602001610084565b6100d66100d1366004610901565b6102f2565b005b6100d66100e6366004610901565b610440565b6100fe6100f9366004610969565b610545565b604051610084959493929190610991565b61012261011d366004610759565b610707565b60408051938452602084019290925290820152606001610084565b6001600160a01b0381165f90815260208181526040808320805482518185028101850190935280835260609492939192909184015b828210156102e7575f8481526020908190206040805160a0810190915260058502909101805460ff16825260018101805492939192918401916101b4906109d3565b80601f01602080910402602001604051908101604052809291908181526020018280546101e0906109d3565b801561022b5780601f106102025761010080835404028352916020019161022b565b820191905f5260205f20905b81548152906001019060200180831161020e57829003601f168201915b50505050508152602001600282018054610244906109d3565b80601f0160208091040260200160405190810160405280929190818152602001828054610270906109d3565b80156102bb5780601f10610292576101008083540402835291602001916102bb565b820191905f5260205f20905b81548152906001019060200180831161029e57829003601f168201915b505050505081526020016003820154815260200160048201548152505081526020019060010190610172565b505050509050919050565b805f036103125760405163162908e360e11b815260040160405180910390fd5b82515f0361033357604051631828cdd560e11b815260040160405180910390fd5b335f90815260208181526040808320815160a08101835284815280840188815292810187905260608101869052426080820152815460018082018455928652939094208451600590940201805460ff191660ff90941693909317835590519082019061039f9082610a57565b50604082015160028201906103b49082610a57565b5060608201516003820155608090910151600490910155335f90815260016020526040812080548392906103e9908490610b2b565b909155505f90505b60ff16336001600160a01b03167f1c2e0deb14fc5b0f03c80d1f3d40ae8ca5088b0b2e55d6a0baf119ee74105fed858585426040516104339493929190610b44565b60405180910390a3505050565b805f036104605760405163162908e360e11b815260040160405180910390fd5b82515f0361048157604051631828cdd560e11b815260040160405180910390fd5b335f90815260208181526040808320815160a08101835260018082528185018981529382018890526060820187905242608083015282548082018455928652939094208451600590920201805460ff191660ff909216919091178155905190918201906104ee9082610a57565b50604082015160028201906105039082610a57565b5060608201516003820155608090910151600490910155335f9081526002602052604081208054839290610538908490610b2b565b90915550600190506103f1565b6001600160a01b0382165f90815260208190526040812054606090819083908190861061058557604051634e23d03560e01b815260040160405180910390fd5b6001600160a01b0387165f9081526020819052604081208054889081106105ae576105ae610b7c565b905f5260205f2090600502019050805f015f9054906101000a900460ff168160010182600201836003015484600401548380546105ea906109d3565b80601f0160208091040260200160405190810160405280929190818152602001828054610616906109d3565b80156106615780601f1061063857610100808354040283529160200191610661565b820191905f5260205f20905b81548152906001019060200180831161064457829003601f168201915b50505050509350828054610674906109d3565b80601f01602080910402602001604051908101604052809291908181526020018280546106a0906109d3565b80156106eb5780601f106106c2576101008083540402835291602001916106eb565b820191905f5260205f20905b8154815290600101906020018083116106ce57829003601f168201915b5050505050925095509550955095509550509295509295909350565b6001600160a01b0381165f90815260016020908152604080832054600290925282205490916107368284610b90565b929491935050565b80356001600160a01b0381168114610754575f80fd5b919050565b5f60208284031215610769575f80fd5b6107728261073e565b9392505050565b5f81518084525f5b8181101561079d57602081850181015186830182015201610781565b505f602082860101526020601f19601f83011685010191505092915050565b5f60208083018184528085518083526040925060408601915060408160051b8701018488015f5b8381101561085657603f19898403018552815160a060ff825116855288820151818a87015261081482870182610779565b915050878201518582038987015261082c8282610779565b606084810151908801526080938401519390960192909252505093860193908601906001016107e3565b509098975050505050505050565b634e487b7160e01b5f52604160045260245ffd5b5f82601f830112610887575f80fd5b813567ffffffffffffffff808211156108a2576108a2610864565b604051601f8301601f19908116603f011681019082821181831017156108ca576108ca610864565b816040528381528660208588010111156108e2575f80fd5b836020870160208301375f602085830101528094505050505092915050565b5f805f60608486031215610913575f80fd5b833567ffffffffffffffff8082111561092a575f80fd5b61093687838801610878565b9450602086013591508082111561094b575f80fd5b5061095886828701610878565b925050604084013590509250925092565b5f806040838503121561097a575f80fd5b6109838361073e565b946020939093013593505050565b60ff8616815260a060208201525f6109ac60a0830187610779565b82810360408401526109be8187610779565b60608401959095525050608001529392505050565b600181811c908216806109e757607f821691505b602082108103610a0557634e487b7160e01b5f52602260045260245ffd5b50919050565b601f821115610a5257805f5260205f20601f840160051c81016020851015610a305750805b601f840160051c820191505b81811015610a4f575f8155600101610a3c565b50505b505050565b815167ffffffffffffffff811115610a7157610a71610864565b610a8581610a7f84546109d3565b84610a0b565b602080601f831160018114610ab8575f8415610aa15750858301515b5f19600386901b1c1916600185901b178555610b0f565b5f85815260208120601f198616915b82811015610ae657888601518255948401946001909101908401610ac7565b5085821015610b0357878501515f19600388901b60f8161c191681555b505060018460011b0185555b505050505050565b634e487b7160e01b5f52601160045260245ffd5b80820180821115610b3e57610b3e610b17565b92915050565b608081525f610b566080830187610779565b8281036020840152610b688187610779565b604084019590955250506060015292915050565b634e487b7160e01b5f52603260045260245ffd5b8181035f831280158383131683831282161715610baf57610baf610b17565b509291505056fea2646970667358221220d836c8a79a3bd119f8e7bf31f8392822d3536edc4e10dae6a0eef5a704e778b064736f6c63430008180033","linkReferences":{}},"methodIdentifiers":{"addExpense(string,string,uint256)":"9c260148","addIncome(string,string,uint256)":"84c13bad","getBalance(address)":"f8b2cb4f","getTransaction(address,uint256)":"a43293b4","getTransactionCount(address)":"23ca0cd2","getTransactions(address)":"0f8cda20"},"id":0}